{
    "contractName": "MultiToken",
    "abi": [
        {
            "inputs": [],
            "stateMutability": "nonpayable",
            "type": "constructor"
        },
        {
            "anonymous": false,
            "inputs": [
                {
                    "indexed": true,
                    "internalType": "address",
                    "name": "account",
                    "type": "address"
                },
                {
                    "indexed": true,
                    "internalType": "address",
                    "name": "operator",
                    "type": "address"
                },
                {
                    "indexed": false,
                    "internalType": "bool",
                    "name": "approved",
                    "type": "bool"
                }
            ],
            "name": "ApprovalForAll",
            "type": "event"
        },
        {
            "anonymous": false,
            "inputs": [
                {
                    "indexed": true,
                    "internalType": "address",
                    "name": "operator",
                    "type": "address"
                },
                {
                    "indexed": true,
                    "internalType": "address",
                    "name": "from",
                    "type": "address"
                },
                {
                    "indexed": true,
                    "internalType": "address",
                    "name": "to",
                    "type": "address"
                },
                {
                    "indexed": false,
                    "internalType": "uint256[]",
                    "name": "ids",
                    "type": "uint256[]"
                },
                {
                    "indexed": false,
                    "internalType": "uint256[]",
                    "name": "values",
                    "type": "uint256[]"
                }
            ],
            "name": "TransferBatch",
            "type": "event"
        },
        {
            "anonymous": false,
            "inputs": [
                {
                    "indexed": true,
                    "internalType": "address",
                    "name": "operator",
                    "type": "address"
                },
                {
                    "indexed": true,
                    "internalType": "address",
                    "name": "from",
                    "type": "address"
                },
                {
                    "indexed": true,
                    "internalType": "address",
                    "name": "to",
                    "type": "address"
                },
                {
                    "indexed": false,
                    "internalType": "uint256",
                    "name": "id",
                    "type": "uint256"
                },
                {
                    "indexed": false,
                    "internalType": "uint256",
                    "name": "value",
                    "type": "uint256"
                }
            ],
            "name": "TransferSingle",
            "type": "event"
        },
        {
            "anonymous": false,
            "inputs": [
                {
                    "indexed": false,
                    "internalType": "string",
                    "name": "value",
                    "type": "string"
                },
                {
                    "indexed": true,
                    "internalType": "uint256",
                    "name": "id",
                    "type": "uint256"
                }
            ],
            "name": "URI",
            "type": "event"
        },
        {
            "inputs": [],
            "name": "Coin",
            "outputs": [
                {
                    "internalType": "uint256",
                    "name": "",
                    "type": "uint256"
                }
            ],
            "stateMutability": "view",
            "type": "function"
        },
        {
            "inputs": [
                {
                    "internalType": "address",
                    "name": "account",
                    "type": "address"
                },
                {
                    "internalType": "uint256",
                    "name": "id",
                    "type": "uint256"
                }
            ],
            "name": "balanceOf",
            "outputs": [
                {
                    "internalType": "uint256",
                    "name": "",
                    "type": "uint256"
                }
            ],
            "stateMutability": "view",
            "type": "function"
        },
        {
            "inputs": [
                {
                    "internalType": "address[]",
                    "name": "accounts",
                    "type": "address[]"
                },
                {
                    "internalType": "uint256[]",
                    "name": "ids",
                    "type": "uint256[]"
                }
            ],
            "name": "balanceOfBatch",
            "outputs": [
                {
                    "internalType": "uint256[]",
                    "name": "",
                    "type": "uint256[]"
                }
            ],
            "stateMutability": "view",
            "type": "function"
        },
        {
            "inputs": [
                {
                    "internalType": "address",
                    "name": "to",
                    "type": "address"
                },
                {
                    "internalType": "uint256[]",
                    "name": "ids",
                    "type": "uint256[]"
                },
                {
                    "internalType": "uint256[]",
                    "name": "amounts",
                    "type": "uint256[]"
                },
                {
                    "internalType": "bytes",
                    "name": "data",
                    "type": "bytes"
                }
            ],
            "name": "createBatchTokens",
            "outputs": [],
            "stateMutability": "nonpayable",
            "type": "function"
        },
        {
            "inputs": [
                {
                    "internalType": "address",
                    "name": "to",
                    "type": "address"
                },
                {
                    "internalType": "uint256",
                    "name": "id",
                    "type": "uint256"
                },
                {
                    "internalType": "uint256",
                    "name": "amount",
                    "type": "uint256"
                },
                {
                    "internalType": "bytes",
                    "name": "data",
                    "type": "bytes"
                }
            ],
            "name": "createToken",
            "outputs": [],
            "stateMutability": "nonpayable",
            "type": "function"
        },
        {
            "inputs": [
                {
                    "internalType": "address[]",
                    "name": "owners",
                    "type": "address[]"
                },
                {
                    "internalType": "uint256[]",
                    "name": "ids",
                    "type": "uint256[]"
                }
            ],
            "name": "getBatchBalance",
            "outputs": [
                {
                    "internalType": "uint256[]",
                    "name": "balance",
                    "type": "uint256[]"
                }
            ],
            "stateMutability": "view",
            "type": "function"
        },
        {
            "inputs": [
                {
                    "internalType": "address",
                    "name": "owner",
                    "type": "address"
                },
                {
                    "internalType": "uint256",
                    "name": "id",
                    "type": "uint256"
                }
            ],
            "name": "getTokenBalance",
            "outputs": [
                {
                    "internalType": "uint256",
                    "name": "",
                    "type": "uint256"
                }
            ],
            "stateMutability": "view",
            "type": "function"
        },
        {
            "inputs": [
                {
                    "internalType": "address",
                    "name": "account",
                    "type": "address"
                },
                {
                    "internalType": "address",
                    "name": "operator",
                    "type": "address"
                }
            ],
            "name": "isApprovedForAll",
            "outputs": [
                {
                    "internalType": "bool",
                    "name": "",
                    "type": "bool"
                }
            ],
            "stateMutability": "view",
            "type": "function"
        },
        {
            "inputs": [
                {
                    "internalType": "address",
                    "name": "from",
                    "type": "address"
                },
                {
                    "internalType": "address",
                    "name": "to",
                    "type": "address"
                },
                {
                    "internalType": "uint256[]",
                    "name": "ids",
                    "type": "uint256[]"
                },
                {
                    "internalType": "uint256[]",
                    "name": "amounts",
                    "type": "uint256[]"
                },
                {
                    "internalType": "bytes",
                    "name": "data",
                    "type": "bytes"
                }
            ],
            "name": "safeBatchTransfer",
            "outputs": [],
            "stateMutability": "nonpayable",
            "type": "function"
        },
        {
            "inputs": [
                {
                    "internalType": "address",
                    "name": "from",
                    "type": "address"
                },
                {
                    "internalType": "address",
                    "name": "to",
                    "type": "address"
                },
                {
                    "internalType": "uint256[]",
                    "name": "ids",
                    "type": "uint256[]"
                },
                {
                    "internalType": "uint256[]",
                    "name": "amounts",
                    "type": "uint256[]"
                },
                {
                    "internalType": "bytes",
                    "name": "data",
                    "type": "bytes"
                }
            ],
            "name": "safeBatchTransferFrom",
            "outputs": [],
            "stateMutability": "nonpayable",
            "type": "function"
        },
        {
            "inputs": [
                {
                    "internalType": "address",
                    "name": "from",
                    "type": "address"
                },
                {
                    "internalType": "address",
                    "name": "to",
                    "type": "address"
                },
                {
                    "internalType": "uint256",
                    "name": "id",
                    "type": "uint256"
                },
                {
                    "internalType": "uint256",
                    "name": "amount",
                    "type": "uint256"
                },
                {
                    "internalType": "bytes",
                    "name": "data",
                    "type": "bytes"
                }
            ],
            "name": "safeTokenTransfer",
            "outputs": [],
            "stateMutability": "nonpayable",
            "type": "function"
        },
        {
            "inputs": [
                {
                    "internalType": "address",
                    "name": "from",
                    "type": "address"
                },
                {
                    "internalType": "address",
                    "name": "to",
                    "type": "address"
                },
                {
                    "internalType": "uint256",
                    "name": "id",
                    "type": "uint256"
                },
                {
                    "internalType": "uint256",
                    "name": "amount",
                    "type": "uint256"
                },
                {
                    "internalType": "bytes",
                    "name": "data",
                    "type": "bytes"
                }
            ],
            "name": "safeTransferFrom",
            "outputs": [],
            "stateMutability": "nonpayable",
            "type": "function"
        },
        {
            "inputs": [
                {
                    "internalType": "address",
                    "name": "operator",
                    "type": "address"
                },
                {
                    "internalType": "bool",
                    "name": "approved",
                    "type": "bool"
                }
            ],
            "name": "setApprovalForAll",
            "outputs": [],
            "stateMutability": "nonpayable",
            "type": "function"
        },
        {
            "inputs": [
                {
                    "internalType": "bytes4",
                    "name": "interfaceId",
                    "type": "bytes4"
                }
            ],
            "name": "supportsInterface",
            "outputs": [
                {
                    "internalType": "bool",
                    "name": "",
                    "type": "bool"
                }
            ],
            "stateMutability": "view",
            "type": "function"
        },
        {
            "inputs": [
                {
                    "internalType": "uint256",
                    "name": "",
                    "type": "uint256"
                }
            ],
            "name": "tokenIds",
            "outputs": [
                {
                    "internalType": "uint256",
                    "name": "",
                    "type": "uint256"
                }
            ],
            "stateMutability": "view",
            "type": "function"
        },
        {
            "inputs": [
                {
                    "internalType": "uint256",
                    "name": "",
                    "type": "uint256"
                }
            ],
            "name": "uri",
            "outputs": [
                {
                    "internalType": "string",
                    "name": "",
                    "type": "string"
                }
            ],
            "stateMutability": "view",
            "type": "function"
        }
    ],
    "bytecode": "60806040523480156200001157600080fd5b506040518060600160405280602781526020016200289b602791396200003e6301ffc9a760e01b620000a1565b620000498162000126565b6200005b636cdb3d1360e11b620000a1565b6200006d6303a24d0760e21b620000a1565b506200009b33600068056bc75e2d63100000604051806020016040528060008152506200013f60201b60201c565b62000730565b6001600160e01b0319808216141562000101576040805162461bcd60e51b815260206004820152601c60248201527f4552433136353a20696e76616c696420696e7465726661636520696400000000604482015290519081900360640190fd5b6001600160e01b0319166000908152602081905260409020805460ff19166001179055565b80516200013b906003906020840190620005ce565b5050565b6200014d8484848462000185565b5050600480546001810182556000919091527f8a35acfbc15ff81a39ae7d344fd709f28e8600b4aa8c65c6b64bfe7fe36bd19b015550565b6001600160a01b038416620001cc5760405162461bcd60e51b8152600401808060200182810382526021815260200180620028c26021913960400191505060405180910390fd5b6000620001d8620002b4565b9050620001ff81600087620001ed88620002b9565b620001f888620002b9565b87620002fe565b60008481526001602090815260408083206001600160a01b038916845282529091205462000238918590620015d362000306821b17901c565b60008581526001602090815260408083206001600160a01b03808b16808652918452828520959095558151898152928301889052815190948616927fc3d58168c5ae7397731d063d5bbf3d657854427343f4c083240f7aacaa2d0f6292908290030190a4620002ad8160008787878762000368565b5050505050565b335b90565b604080516001808252818301909252606091829190602080830190803683370190505090508281600081518110620002ed57fe5b602090810291909101015292915050565b505050505050565b60008282018381101562000361576040805162461bcd60e51b815260206004820152601b60248201527f536166654d6174683a206164646974696f6e206f766572666c6f770000000000604482015290519081900360640190fd5b9392505050565b62000387846001600160a01b0316620005c860201b6200162d1760201c565b15620002fe57836001600160a01b031663f23a6e6187878686866040518663ffffffff1660e01b815260040180866001600160a01b03168152602001856001600160a01b0316815260200184815260200183815260200180602001828103825283818151815260200191508051906020019080838360005b8381101562000419578181015183820152602001620003ff565b50505050905090810190601f168015620004475780820380516001836020036101000a031916815260200191505b509650505050505050602060405180830381600087803b1580156200046b57600080fd5b505af19250505080156200049257506040513d60208110156200048d57600080fd5b505160015b6200056e57620004a162000680565b80620004ae575062000536565b8060405162461bcd60e51b81526004018080602001828103825283818151815260200191508051906020019080838360005b83811015620004fa578181015183820152602001620004e0565b50505050905090810190601f168015620005285780820380516001836020036101000a031916815260200191505b509250505060405180910390fd5b60405162461bcd60e51b81526004018080602001828103825260348152602001806200283f6034913960400191505060405180910390fd5b6001600160e01b0319811663f23a6e6160e01b14620005bf5760405162461bcd60e51b8152600401808060200182810382526028815260200180620028736028913960400191505060405180910390fd5b50505050505050565b3b151590565b828054600181600116156101000203166002900490600052602060002090601f01602090048101928262000606576000855562000651565b82601f106200062157805160ff191683800117855562000651565b8280016001018555821562000651579182015b828111156200065157825182559160200191906001019062000634565b506200065f92915062000663565b5090565b5b808211156200065f576000815560010162000664565b60e01c90565b600060443d10156200069257620002b6565b600481823e6308c379a0620006a882516200067a565b14620006b457620002b6565b6040513d600319016004823e80513d6001600160401b038083116024840183101715620006e55750505050620002b6565b82840192508251915080821115620007015750505050620002b6565b503d830160208284010111156200071b57505050620002b6565b601f01601f1916810160200160405291505090565b6120ff80620007406000396000f3fe608060405234801561001057600080fd5b50600436106100ff5760003560e01c80635b0f767a11610097578063d58778d611610066578063d58778d614610a14578063e667788214610a31578063e985e9c514610be9578063f242432a14610c17576100ff565b80635b0f767a146107545780636d1bcd8c1461081d578063a22cb465146109de578063a77b2e3714610a0c576100ff565b806327a38edd116100d357806327a38edd1461023b5780632eb2c2d6146103ae5780634bd2d6dd146105715780634e1273f414610631576100ff565b8062fdd58e1461010457806301ffc9a7146101425780630916bae51461017d5780630e89341c146101a9575b600080fd5b6101306004803603604081101561011a57600080fd5b506001600160a01b038135169060200135610ce0565b60408051918252519081900360200190f35b6101696004803603602081101561015857600080fd5b50356001600160e01b031916610d4f565b604080519115158252519081900360200190f35b6101306004803603604081101561019357600080fd5b506001600160a01b038135169060200135610d6e565b6101c6600480360360208110156101bf57600080fd5b5035610d81565b6040805160208082528351818301528351919283929083019185019080838360005b838110156102005781810151838201526020016101e8565b50505050905090810190601f16801561022d5780820380516001836020036101000a031916815260200191505b509250505060405180910390f35b61035e6004803603604081101561025157600080fd5b810190602081018135600160201b81111561026b57600080fd5b82018360208201111561027d57600080fd5b803590602001918460208302840111600160201b8311171561029e57600080fd5b9190808060200260200160405190810160405280939291908181526020018383602002808284376000920191909152509295949360208101935035915050600160201b8111156102ed57600080fd5b8201836020820111156102ff57600080fd5b803590602001918460208302840111600160201b8311171561032057600080fd5b919080806020026020016040519081016040528093929190818152602001838360200280828437600092019190915250929550610e19945050505050565b60408051602080825283518183015283519192839290830191858101910280838360005b8381101561039a578181015183820152602001610382565b505050509050019250505060405180910390f35b61056f600480360360a08110156103c457600080fd5b6001600160a01b038235811692602081013590911691810190606081016040820135600160201b8111156103f757600080fd5b82018360208201111561040957600080fd5b803590602001918460208302840111600160201b8311171561042a57600080fd5b9190808060200260200160405190810160405280939291908181526020018383602002808284376000920191909152509295949360208101935035915050600160201b81111561047957600080fd5b82018360208201111561048b57600080fd5b803590602001918460208302840111600160201b831117156104ac57600080fd5b9190808060200260200160405190810160405280939291908181526020018383602002808284376000920191909152509295949360208101935035915050600160201b8111156104fb57600080fd5b82018360208201111561050d57600080fd5b803590602001918460018302840111600160201b8311171561052e57600080fd5b91908080601f016020809104026020016040519081016040528093929190818152602001838380828437600092019190915250929550610e25945050505050565b005b61056f6004803603608081101561058757600080fd5b6001600160a01b038235169160208101359160408201359190810190608081016060820135600160201b8111156105bd57600080fd5b8201836020820111156105cf57600080fd5b803590602001918460018302840111600160201b831117156105f057600080fd5b91908080601f016020809104026020016040519081016040528093929190818152602001838380828437600092019190915250929550611123945050505050565b61035e6004803603604081101561064757600080fd5b810190602081018135600160201b81111561066157600080fd5b82018360208201111561067357600080fd5b803590602001918460208302840111600160201b8311171561069457600080fd5b9190808060200260200160405190810160405280939291908181526020018383602002808284376000920191909152509295949360208101935035915050600160201b8111156106e357600080fd5b8201836020820111156106f557600080fd5b803590602001918460208302840111600160201b8311171561071657600080fd5b919080806020026020016040519081016040528093929190818152602001838360200280828437600092019190915250929550611167945050505050565b61056f600480360360a081101561076a57600080fd5b6001600160a01b03823581169260208101359091169160408201359160608101359181019060a081016080820135600160201b8111156107a957600080fd5b8201836020820111156107bb57600080fd5b803590602001918460018302840111600160201b831117156107dc57600080fd5b91908080601f016020809104026020016040519081016040528093929190818152602001838380828437600092019190915250929550611253945050505050565b61056f600480360360a081101561083357600080fd5b6001600160a01b038235811692602081013590911691810190606081016040820135600160201b81111561086657600080fd5b82018360208201111561087857600080fd5b803590602001918460208302840111600160201b8311171561089957600080fd5b9190808060200260200160405190810160405280939291908181526020018383602002808284376000920191909152509295949360208101935035915050600160201b8111156108e857600080fd5b8201836020820111156108fa57600080fd5b803590602001918460208302840111600160201b8311171561091b57600080fd5b9190808060200260200160405190810160405280939291908181526020018383602002808284376000920191909152509295949360208101935035915050600160201b81111561096a57600080fd5b82018360208201111561097c57600080fd5b803590602001918460018302840111600160201b8311171561099d57600080fd5b91908080601f016020809104026020016040519081016040528093929190818152602001838380828437600092019190915250929550611267945050505050565b61056f600480360360408110156109f457600080fd5b506001600160a01b0381351690602001351515611274565b610130611363565b61013060048036036020811015610a2a57600080fd5b5035611368565b61056f60048036036080811015610a4757600080fd5b6001600160a01b038235169190810190604081016020820135600160201b811115610a7157600080fd5b820183602082011115610a8357600080fd5b803590602001918460208302840111600160201b83111715610aa457600080fd5b9190808060200260200160405190810160405280939291908181526020018383602002808284376000920191909152509295949360208101935035915050600160201b811115610af357600080fd5b820183602082011115610b0557600080fd5b803590602001918460208302840111600160201b83111715610b2657600080fd5b9190808060200260200160405190810160405280939291908181526020018383602002808284376000920191909152509295949360208101935035915050600160201b811115610b7557600080fd5b820183602082011115610b8757600080fd5b803590602001918460018302840111600160201b83111715610ba857600080fd5b91908080601f016020809104026020016040519081016040528093929190818152602001838380828437600092019190915250929550611389945050505050565b61016960048036036040811015610bff57600080fd5b506001600160a01b03813581169160200135166113da565b61056f600480360360a0811015610c2d57600080fd5b6001600160a01b03823581169260208101359091169160408201359160608101359181019060a081016080820135600160201b811115610c6c57600080fd5b820183602082011115610c7e57600080fd5b803590602001918460018302840111600160201b83111715610c9f57600080fd5b91908080601f016020809104026020016040519081016040528093929190818152602001838380828437600092019190915250929550611408945050505050565b60006001600160a01b038316610d275760405162461bcd60e51b815260040180806020018281038252602b815260200180611f5a602b913960400191505060405180910390fd5b5060009081526001602090815260408083206001600160a01b03949094168352929052205490565b6001600160e01b03191660009081526020819052604090205460ff1690565b6000610d7a8383610ce0565b9392505050565b60038054604080516020601f6002600019610100600188161502019095169490940493840181900481028201810190925282815260609390929091830182828015610e0d5780601f10610de257610100808354040283529160200191610e0d565b820191906000526020600020905b815481529060010190602001808311610df057829003601f168201915b50505050509050919050565b6060610d7a8383611167565b8151835114610e655760405162461bcd60e51b81526004018080602001828103825260288152602001806120816028913960400191505060405180910390fd5b6001600160a01b038416610eaa5760405162461bcd60e51b8152600401808060200182810382526025815260200180611fae6025913960400191505060405180910390fd5b610eb2611633565b6001600160a01b0316856001600160a01b03161480610edd5750610edd85610ed8611633565b6113da565b610f185760405162461bcd60e51b8152600401808060200182810382526032815260200180611fd36032913960400191505060405180910390fd5b6000610f22611633565b9050610f3281878787878761111b565b60005b8451811015611033576000858281518110610f4c57fe5b602002602001015190506000858381518110610f6457fe5b60200260200101519050610fd1816040518060600160405280602a8152602001612005602a91396001600086815260200190815260200160002060008d6001600160a01b03166001600160a01b03168152602001908152602001600020546116389092919063ffffffff16565b60008381526001602090815260408083206001600160a01b038e811685529252808320939093558a168152205461100890826115d3565b60009283526001602081815260408086206001600160a01b038d168752909152909320555001610f35565b50846001600160a01b0316866001600160a01b0316826001600160a01b03167f4a39dc06d4c0dbc64b70af90fd698a233a518aa5d07e595d983b8c0526c8f7fb8787604051808060200180602001838103835285818151815260200191508051906020019060200280838360005b838110156110b95781810151838201526020016110a1565b50505050905001838103825284818151815260200191508051906020019060200280838360005b838110156110f85781810151838201526020016110e0565b5050505090500194505050505060405180910390a461111b8187878787876116cf565b505050505050565b61112f8484848461194e565b5050600480546001810182556000919091527f8a35acfbc15ff81a39ae7d344fd709f28e8600b4aa8c65c6b64bfe7fe36bd19b015550565b606081518351146111a95760405162461bcd60e51b81526004018080602001828103825260298152602001806120586029913960400191505060405180910390fd5b6060835167ffffffffffffffff811180156111c357600080fd5b506040519080825280602002602001820160405280156111ed578160200160208202803683370190505b50905060005b845181101561124b5761122c85828151811061120b57fe5b602002602001015185838151811061121f57fe5b6020026020010151610ce0565b82828151811061123857fe5b60209081029190910101526001016111f3565b509392505050565b6112608585858585611408565b5050505050565b6112608585858585611267565b816001600160a01b0316611286611633565b6001600160a01b031614156112cc5760405162461bcd60e51b815260040180806020018281038252602981526020018061202f6029913960400191505060405180910390fd5b80600260006112d9611633565b6001600160a01b03908116825260208083019390935260409182016000908120918716808252919093529120805460ff19169215159290921790915561131d611633565b6001600160a01b03167f17307eab39ab6107e8899845ad3d59bd9653f200f220920489ca2b5937696c318360405180821515815260200191505060405180910390a35050565b600081565b6004818154811061137857600080fd5b600091825260209091200154905081565b61139584848484611a4f565b60005b83518110156112605760048482815181106113af57fe5b6020908102919091018101518254600181810185556000948552929093209092019190915501611398565b6001600160a01b03918216600090815260026020908152604080832093909416825291909152205460ff1690565b6001600160a01b03841661144d5760405162461bcd60e51b8152600401808060200182810382526025815260200180611fae6025913960400191505060405180910390fd5b611455611633565b6001600160a01b0316856001600160a01b0316148061147b575061147b85610ed8611633565b6114b65760405162461bcd60e51b8152600401808060200182810382526029815260200180611f856029913960400191505060405180910390fd5b60006114c0611633565b90506114e08187876114d188611c9d565b6114da88611c9d565b8761111b565b611527836040518060600160405280602a8152602001612005602a913960008781526001602090815260408083206001600160a01b038d1684529091529020549190611638565b60008581526001602090815260408083206001600160a01b038b8116855292528083209390935587168152205461155e90846115d3565b60008581526001602090815260408083206001600160a01b03808b168086529184529382902094909455805188815291820187905280518a8416938616927fc3d58168c5ae7397731d063d5bbf3d657854427343f4c083240f7aacaa2d0f6292908290030190a461111b818787878787611ce1565b600082820183811015610d7a576040805162461bcd60e51b815260206004820152601b60248201527f536166654d6174683a206164646974696f6e206f766572666c6f770000000000604482015290519081900360640190fd5b3b151590565b335b90565b600081848411156116c75760405162461bcd60e51b81526004018080602001828103825283818151815260200191508051906020019080838360005b8381101561168c578181015183820152602001611674565b50505050905090810190601f1680156116b95780820380516001836020036101000a031916815260200191505b509250505060405180910390fd5b505050900390565b6116e1846001600160a01b031661162d565b1561111b57836001600160a01b031663bc197c8187878686866040518663ffffffff1660e01b815260040180866001600160a01b03168152602001856001600160a01b03168152602001806020018060200180602001848103845287818151815260200191508051906020019060200280838360005b8381101561176f578181015183820152602001611757565b50505050905001848103835286818151815260200191508051906020019060200280838360005b838110156117ae578181015183820152602001611796565b50505050905001848103825285818151815260200191508051906020019080838360005b838110156117ea5781810151838201526020016117d2565b50505050905090810190601f1680156118175780820380516001836020036101000a031916815260200191505b5098505050505050505050602060405180830381600087803b15801561183c57600080fd5b505af192505050801561186157506040513d602081101561185c57600080fd5b505160015b6118f65761186d611e58565b8061187857506118bf565b60405162461bcd60e51b815260206004820181815283516024840152835184939192839260440191908501908083836000831561168c578181015183820152602001611674565b60405162461bcd60e51b8152600401808060200182810382526034815260200180611efe6034913960400191505060405180910390fd5b6001600160e01b0319811663bc197c8160e01b146119455760405162461bcd60e51b8152600401808060200182810382526028815260200180611f326028913960400191505060405180910390fd5b50505050505050565b6001600160a01b0384166119935760405162461bcd60e51b81526004018080602001828103825260218152602001806120a96021913960400191505060405180910390fd5b600061199d611633565b90506119af816000876114d188611c9d565b60008481526001602090815260408083206001600160a01b03891684529091529020546119dc90846115d3565b60008581526001602090815260408083206001600160a01b03808b16808652918452828520959095558151898152928301889052815190948616927fc3d58168c5ae7397731d063d5bbf3d657854427343f4c083240f7aacaa2d0f6292908290030190a461126081600087878787611ce1565b6001600160a01b038416611a945760405162461bcd60e51b81526004018080602001828103825260218152602001806120a96021913960400191505060405180910390fd5b8151835114611ad45760405162461bcd60e51b81526004018080602001828103825260288152602001806120816028913960400191505060405180910390fd5b6000611ade611633565b9050611aef8160008787878761111b565b60005b8451811015611bb357611b6a60016000878481518110611b0e57fe5b602002602001015181526020019081526020016000206000886001600160a01b03166001600160a01b0316815260200190815260200160002054858381518110611b5457fe5b60200260200101516115d390919063ffffffff16565b60016000878481518110611b7a57fe5b602090810291909101810151825281810192909252604090810160009081206001600160a01b038b168252909252902055600101611af2565b50846001600160a01b031660006001600160a01b0316826001600160a01b03167f4a39dc06d4c0dbc64b70af90fd698a233a518aa5d07e595d983b8c0526c8f7fb8787604051808060200180602001838103835285818151815260200191508051906020019060200280838360005b83811015611c3a578181015183820152602001611c22565b50505050905001838103825284818151815260200191508051906020019060200280838360005b83811015611c79578181015183820152602001611c61565b5050505090500194505050505060405180910390a4611260816000878787876116cf565b604080516001808252818301909252606091829190602080830190803683370190505090508281600081518110611cd057fe5b602090810291909101015292915050565b611cf3846001600160a01b031661162d565b1561111b57836001600160a01b031663f23a6e6187878686866040518663ffffffff1660e01b815260040180866001600160a01b03168152602001856001600160a01b0316815260200184815260200183815260200180602001828103825283818151815260200191508051906020019080838360005b83811015611d82578181015183820152602001611d6a565b50505050905090810190601f168015611daf5780820380516001836020036101000a031916815260200191505b509650505050505050602060405180830381600087803b158015611dd257600080fd5b505af1925050508015611df757506040513d6020811015611df257600080fd5b505160015b611e035761186d611e58565b6001600160e01b0319811663f23a6e6160e01b146119455760405162461bcd60e51b8152600401808060200182810382526028815260200180611f326028913960400191505060405180910390fd5b60e01c90565b600060443d1015611e6857611635565b600481823e6308c379a0611e7c8251611e52565b14611e8657611635565b6040513d600319016004823e80513d67ffffffffffffffff8160248401118184111715611eb65750505050611635565b82840192508251915080821115611ed05750505050611635565b503d83016020828401011115611ee857505050611635565b601f01601f191681016020016040529150509056fe455243313135353a207472616e7366657220746f206e6f6e2045524331313535526563656976657220696d706c656d656e746572455243313135353a204552433131353552656365697665722072656a656374656420746f6b656e73455243313135353a2062616c616e636520717565727920666f7220746865207a65726f2061646472657373455243313135353a2063616c6c6572206973206e6f74206f776e6572206e6f7220617070726f766564455243313135353a207472616e7366657220746f20746865207a65726f2061646472657373455243313135353a207472616e736665722063616c6c6572206973206e6f74206f776e6572206e6f7220617070726f766564455243313135353a20696e73756666696369656e742062616c616e636520666f72207472616e73666572455243313135353a2073657474696e6720617070726f76616c2073746174757320666f722073656c66455243313135353a206163636f756e747320616e6420696473206c656e677468206d69736d61746368455243313135353a2069647320616e6420616d6f756e7473206c656e677468206d69736d61746368455243313135353a206d696e7420746f20746865207a65726f2061646472657373a264697066735822122058e5957257ee4d493ffc46f92b5193ae7c7c08a1eae077e8daba6cdbb5bc64ae64736f6c63430007040033455243313135353a207472616e7366657220746f206e6f6e2045524331313535526563656976657220696d706c656d656e746572455243313135353a204552433131353552656365697665722072656a656374656420746f6b656e7368747470733a2f2f67616d652e6578616d706c652f6170692f6974656d2f7b69647d2e6a736f6e455243313135353a206d696e7420746f20746865207a65726f2061646472657373",
    "sourcePath": "c:/Users/jghar/OneDrive/Documents/School Work/Term 4/Capstone/AuxiunCrypto/SmartContracts/contracts/MultiToken.sol",
    "compiler": {
        "name": "solc",
        "version": "0.7.4+commit.3f05b770"
    },
    "functionHashes": {
        "Coin()": "a77b2e37",
        "balanceOf(address,uint256)": "00fdd58e",
        "balanceOfBatch(address[],uint256[])": "4e1273f4",
        "createBatchTokens(address,uint256[],uint256[],bytes)": "e6677882",
        "createToken(address,uint256,uint256,bytes)": "4bd2d6dd",
        "getBatchBalance(address[],uint256[])": "27a38edd",
        "getTokenBalance(address,uint256)": "0916bae5",
        "isApprovedForAll(address,address)": "e985e9c5",
        "safeBatchTransfer(address,address,uint256[],uint256[],bytes)": "6d1bcd8c",
        "safeBatchTransferFrom(address,address,uint256[],uint256[],bytes)": "2eb2c2d6",
        "safeTokenTransfer(address,address,uint256,uint256,bytes)": "5b0f767a",
        "safeTransferFrom(address,address,uint256,uint256,bytes)": "f242432a",
        "setApprovalForAll(address,bool)": "a22cb465",
        "supportsInterface(bytes4)": "01ffc9a7",
        "tokenIds(uint256)": "d58778d6",
        "uri(uint256)": "0e89341c"
    },
    "gasEstimates": {
        "creation": {
            "codeDepositCost": "1689400",
            "executionCost": "infinite",
            "totalCost": "infinite"
        },
        "external": {
            "Coin()": "287",
            "balanceOf(address,uint256)": "infinite",
            "balanceOfBatch(address[],uint256[])": "infinite",
            "createBatchTokens(address,uint256[],uint256[],bytes)": "infinite",
            "createToken(address,uint256,uint256,bytes)": "infinite",
            "getBatchBalance(address[],uint256[])": "infinite",
            "getTokenBalance(address,uint256)": "infinite",
            "isApprovedForAll(address,address)": "1328",
            "safeBatchTransfer(address,address,uint256[],uint256[],bytes)": "infinite",
            "safeBatchTransferFrom(address,address,uint256[],uint256[],bytes)": "infinite",
            "safeTokenTransfer(address,address,uint256,uint256,bytes)": "infinite",
            "safeTransferFrom(address,address,uint256,uint256,bytes)": "infinite",
            "setApprovalForAll(address,bool)": "infinite",
            "supportsInterface(bytes4)": "1209",
            "tokenIds(uint256)": "1953",
            "uri(uint256)": "infinite"
        }
    }
}